{
  "_format": "hh-sol-artifact-1",
  "contractName": "GaiaNFTBridge",
  "sourceName": "contracts/GaiaNFTBridge.sol",
  "abi": [
    {
      "inputs": [
        {
          "internalType": "address",
          "name": "_genesis",
          "type": "address"
        },
        {
          "internalType": "address",
          "name": "_supernova",
          "type": "address"
        },
        {
          "internalType": "address",
          "name": "_stableDAO",
          "type": "address"
        },
        {
          "internalType": "address",
          "name": "_signer",
          "type": "address"
        }
      ],
      "stateMutability": "nonpayable",
      "type": "constructor"
    },
    {
      "anonymous": false,
      "inputs": [
        {
          "indexed": true,
          "internalType": "address",
          "name": "previousOwner",
          "type": "address"
        },
        {
          "indexed": true,
          "internalType": "address",
          "name": "newOwner",
          "type": "address"
        }
      ],
      "name": "OwnershipTransferred",
      "type": "event"
    },
    {
      "anonymous": false,
      "inputs": [
        {
          "indexed": true,
          "internalType": "address",
          "name": "sender",
          "type": "address"
        },
        {
          "indexed": true,
          "internalType": "uint256",
          "name": "fromChainId",
          "type": "uint256"
        },
        {
          "indexed": true,
          "internalType": "address",
          "name": "receiver",
          "type": "address"
        },
        {
          "indexed": false,
          "internalType": "string",
          "name": "nftName",
          "type": "string"
        },
        {
          "indexed": false,
          "internalType": "address",
          "name": "nftAddress",
          "type": "address"
        },
        {
          "indexed": false,
          "internalType": "uint256[]",
          "name": "ids",
          "type": "uint256[]"
        },
        {
          "indexed": false,
          "internalType": "uint256",
          "name": "sendingId",
          "type": "uint256"
        }
      ],
      "name": "ReceiveNFTs",
      "type": "event"
    },
    {
      "anonymous": false,
      "inputs": [
        {
          "indexed": true,
          "internalType": "address",
          "name": "sender",
          "type": "address"
        },
        {
          "indexed": true,
          "internalType": "uint256",
          "name": "toChainId",
          "type": "uint256"
        },
        {
          "indexed": true,
          "internalType": "address",
          "name": "receiver",
          "type": "address"
        },
        {
          "indexed": false,
          "internalType": "string",
          "name": "nftName",
          "type": "string"
        },
        {
          "indexed": false,
          "internalType": "address",
          "name": "nftAddress",
          "type": "address"
        },
        {
          "indexed": false,
          "internalType": "uint256[]",
          "name": "ids",
          "type": "uint256[]"
        },
        {
          "indexed": false,
          "internalType": "uint256",
          "name": "sendingId",
          "type": "uint256"
        }
      ],
      "name": "SendNFTs",
      "type": "event"
    },
    {
      "anonymous": false,
      "inputs": [
        {
          "indexed": false,
          "internalType": "address",
          "name": "newSigner",
          "type": "address"
        }
      ],
      "name": "SetSigner",
      "type": "event"
    },
    {
      "inputs": [],
      "name": "BATCH_TRANSFER_LIMIT",
      "outputs": [
        {
          "internalType": "uint256",
          "name": "",
          "type": "uint256"
        }
      ],
      "stateMutability": "view",
      "type": "function"
    },
    {
      "inputs": [],
      "name": "genesis",
      "outputs": [
        {
          "internalType": "bytes32",
          "name": "",
          "type": "bytes32"
        }
      ],
      "stateMutability": "view",
      "type": "function"
    },
    {
      "inputs": [
        {
          "internalType": "address",
          "name": "",
          "type": "address"
        },
        {
          "internalType": "uint256",
          "name": "",
          "type": "uint256"
        },
        {
          "internalType": "uint256",
          "name": "",
          "type": "uint256"
        }
      ],
      "name": "isNFTsReceived",
      "outputs": [
        {
          "internalType": "bool",
          "name": "",
          "type": "bool"
        }
      ],
      "stateMutability": "view",
      "type": "function"
    },
    {
      "inputs": [],
      "name": "owner",
      "outputs": [
        {
          "internalType": "address",
          "name": "",
          "type": "address"
        }
      ],
      "stateMutability": "view",
      "type": "function"
    },
    {
      "inputs": [
        {
          "internalType": "address",
          "name": "sender",
          "type": "address"
        },
        {
          "internalType": "uint256",
          "name": "fromChainId",
          "type": "uint256"
        },
        {
          "internalType": "address",
          "name": "receiver",
          "type": "address"
        },
        {
          "internalType": "string",
          "name": "nftName",
          "type": "string"
        },
        {
          "internalType": "address",
          "name": "nftAddress",
          "type": "address"
        },
        {
          "internalType": "uint256[]",
          "name": "ids",
          "type": "uint256[]"
        },
        {
          "internalType": "uint256",
          "name": "sendingId",
          "type": "uint256"
        },
        {
          "internalType": "bytes",
          "name": "sig",
          "type": "bytes"
        }
      ],
      "name": "receiveNFTs",
      "outputs": [],
      "stateMutability": "nonpayable",
      "type": "function"
    },
    {
      "inputs": [],
      "name": "renounceOwnership",
      "outputs": [],
      "stateMutability": "nonpayable",
      "type": "function"
    },
    {
      "inputs": [
        {
          "internalType": "uint256",
          "name": "toChainId",
          "type": "uint256"
        },
        {
          "internalType": "address",
          "name": "receiver",
          "type": "address"
        },
        {
          "internalType": "string",
          "name": "nftName",
          "type": "string"
        },
        {
          "internalType": "address",
          "name": "nftAddress",
          "type": "address"
        },
        {
          "internalType": "uint256[]",
          "name": "ids",
          "type": "uint256[]"
        }
      ],
      "name": "sendNFTs",
      "outputs": [
        {
          "internalType": "uint256",
          "name": "sendingId",
          "type": "uint256"
        }
      ],
      "stateMutability": "nonpayable",
      "type": "function"
    },
    {
      "inputs": [
        {
          "internalType": "address",
          "name": "sender",
          "type": "address"
        },
        {
          "internalType": "uint256",
          "name": "toChainId",
          "type": "uint256"
        }
      ],
      "name": "sendingCounts",
      "outputs": [
        {
          "internalType": "uint256",
          "name": "",
          "type": "uint256"
        }
      ],
      "stateMutability": "view",
      "type": "function"
    },
    {
      "inputs": [
        {
          "internalType": "address",
          "name": "sender",
          "type": "address"
        },
        {
          "internalType": "uint256",
          "name": "toChainId",
          "type": "uint256"
        },
        {
          "internalType": "uint256",
          "name": "sendingId",
          "type": "uint256"
        }
      ],
      "name": "sentAt",
      "outputs": [
        {
          "internalType": "uint32",
          "name": "atBlock",
          "type": "uint32"
        }
      ],
      "stateMutability": "view",
      "type": "function"
    },
    {
      "inputs": [
        {
          "internalType": "address",
          "name": "newSigner",
          "type": "address"
        }
      ],
      "name": "setSigner",
      "outputs": [],
      "stateMutability": "nonpayable",
      "type": "function"
    },
    {
      "inputs": [],
      "name": "signer",
      "outputs": [
        {
          "internalType": "address",
          "name": "",
          "type": "address"
        }
      ],
      "stateMutability": "view",
      "type": "function"
    },
    {
      "inputs": [],
      "name": "stableDAO",
      "outputs": [
        {
          "internalType": "bytes32",
          "name": "",
          "type": "bytes32"
        }
      ],
      "stateMutability": "view",
      "type": "function"
    },
    {
      "inputs": [],
      "name": "supernova",
      "outputs": [
        {
          "internalType": "bytes32",
          "name": "",
          "type": "bytes32"
        }
      ],
      "stateMutability": "view",
      "type": "function"
    },
    {
      "inputs": [
        {
          "internalType": "bytes32",
          "name": "",
          "type": "bytes32"
        }
      ],
      "name": "token",
      "outputs": [
        {
          "internalType": "address",
          "name": "",
          "type": "address"
        }
      ],
      "stateMutability": "view",
      "type": "function"
    },
    {
      "inputs": [
        {
          "internalType": "address",
          "name": "newOwner",
          "type": "address"
        }
      ],
      "name": "transferOwnership",
      "outputs": [],
      "stateMutability": "nonpayable",
      "type": "function"
    }
  ],
  "bytecode": "0x60806040523480156200001157600080fd5b506040516200147038038062001470833981016040819052620000349162000186565b6200003f3362000119565b60026020527f8deb895e087e3d6c79430aa208aafb4b9b645d521b52e9f21ab20e30f458c22980546001600160a01b039586166001600160a01b0319918216179091557fbf1703a247f6985ed418f4bff41147d8940e8391acdddebb6d68a0aacf7f59008054948616948216949094179093557f1342411a78487011860b39756a66f9e6f2938129de010aeab7da5d3b45e4f8836000527f46f8e45b683f4cedf03a066d5bfa3ca9a46aea483ec4b288a84bb6c9d2d91f9a80549285169284169290921790915560018054919093169116179055620001e3565b600080546001600160a01b038381166001600160a01b0319831681178455604051919092169283917f8be0079c531659141344cd1fd0a4f28419497f9722a3daafe3b4186f6b6457e09190a35050565b80516001600160a01b03811681146200018157600080fd5b919050565b600080600080608085870312156200019d57600080fd5b620001a88562000169565b9350620001b86020860162000169565b9250620001c86040860162000169565b9150620001d86060860162000169565b905092959194509250565b61127d80620001f36000396000f3fe608060405234801561001057600080fd5b50600436106100f55760003560e01c806394cdd1d511610097578063e6062e1a11610066578063e6062e1a1461025c578063ea631a7b14610285578063ebd87819146102ad578063f2fde38b146102d457600080fd5b806394cdd1d5146101d9578063a044f05f1461020f578063a7f0b3de14610222578063ae0338a31461024957600080fd5b80634a91f2b1116100d35780634a91f2b1146101845780636c19e783146101ab578063715018a6146101c05780638da5cb5b146101c857600080fd5b8063026347a4146100fa5780630f82d10d14610143578063238ac93314610159575b600080fd5b61012e610108366004610d5d565b600460209081526000938452604080852082529284528284209052825290205460ff1681565b60405190151581526020015b60405180910390f35b61014b600a81565b60405190815260200161013a565b60015461016c906001600160a01b031681565b6040516001600160a01b03909116815260200161013a565b61014b7f13600aad6c28c22a9122267fc28d8d38717b61f6b6cfde8d44663d1957f4b94381565b6101be6101b9366004610d90565b6102e7565b005b6101be610391565b6000546001600160a01b031661016c565b61014b6101e7366004610dab565b6001600160a01b03919091166000908152600360209081526040808320938352929052205490565b61014b61021d366004610e5c565b6103a5565b61014b7f019f6193080fa2ce1eb4082321d3fc1563ca3ee6f96dc5b2092d4bd08cc1b2cb81565b6101be610257366004610efa565b6105a7565b61016c61026a366004610fe0565b6002602052600090815260409020546001600160a01b031681565b610298610293366004610d5d565b610876565b60405163ffffffff909116815260200161013a565b61014b7f1342411a78487011860b39756a66f9e6f2938129de010aeab7da5d3b45e4f88381565b6101be6102e2366004610d90565b6108db565b6102ef610954565b6001546001600160a01b0380831691160361033d5760405162461bcd60e51b8152602060048201526009602482015268155390d2105391d15160ba1b60448201526064015b60405180910390fd5b600180546001600160a01b0319166001600160a01b0383169081179091556040519081527fbb10aee7ef5a307b8097c6a7f2892b909ff1736fd24a6a5260640c185f7153b69060200160405180910390a150565b610399610954565b6103a360006109ae565b565b60006001600160a01b0387166103f25760405162461bcd60e51b8152602060048201526012602482015271052454345495645525f414444524553535f360741b6044820152606401610334565b836001600160a01b0316600260008888604051602001610413929190610ff9565b60408051601f19818403018152918152815160209283012083529082019290925201600020546001600160a01b0316146104825760405162461bcd60e51b815260206004820152601060248201526f13919517d110551057d11254d0d3d49160821b6044820152606401610334565b8180158015906104935750600a8111155b6104d15760405162461bcd60e51b815260206004820152600f60248201526e494e56414c49445f414d4f554e545360881b6044820152606401610334565b3360009081526003602090815260408083208c84529091529020805492506104fe64010000000043611009565b8154600181018355600092835260209092206008830401805460079093166004026101000a63ffffffff8181021990941692909316929092021790556105458585856109fe565b876001600160a01b031689336001600160a01b03167f255a09bc1637a3318445ab972caefc9345e828239d187c343003a454768844ff8a8a8a8a8a8a60405161059396959493929190611061565b60405180910390a450979650505050505050565b6001600160a01b038b1660009081526004602090815260408083208d8452825280832086845290915290205460ff16156106165760405162461bcd60e51b815260206004820152601060248201526f1053149150511657d49150d15255915160821b6044820152606401610334565b856001600160a01b0316600260008a8a604051602001610637929190610ff9565b60408051601f19818403018152918152815160209283012083529082019290925201600020546001600160a01b0316146106a65760405162461bcd60e51b815260206004820152601060248201526f13919517d110551057d11254d0d3d49160821b6044820152606401610334565b6000308b8d468d8d8d8d8d8d8d6040516020016106cd9b9a999897969594939291906110c3565b604051602081830303815290604052805190602001209050600061073e826040517f19457468657265756d205369676e6564204d6573736167653a0a3332000000006020820152603c8101829052600090605c01604051602081830303815290604052805190602001209050919050565b600154604080516020601f880181900481028201810190925286815292935061078f926001600160a01b039092169184918890889081908401838280828437600092019190915250610a6592505050565b6107cf5760405162461bcd60e51b8152602060048201526011602482015270494e56414c49445f5349474e415455524560781b6044820152606401610334565b6001600160a01b038d1660009081526004602090815260408083208f845282528083208884529091529020805460ff191660011790556108118b898989610ba7565b8a6001600160a01b03168c8e6001600160a01b03167f142e521fbafbdd93dc24bc0f85751d233f4bd27f90a00d4f5c2da22f2db46c868d8d8d8d8d8d60405161085f96959493929190611061565b60405180910390a450505050505050505050505050565b6001600160a01b038316600090815260036020908152604080832085845290915281208054839081106108ab576108ab61114e565b90600052602060002090600891828204019190066004029054906101000a900463ffffffff1690505b9392505050565b6108e3610954565b6001600160a01b0381166109485760405162461bcd60e51b815260206004820152602660248201527f4f776e61626c653a206e6577206f776e657220697320746865207a65726f206160448201526564647265737360d01b6064820152608401610334565b610951816109ae565b50565b6000546001600160a01b031633146103a35760405162461bcd60e51b815260206004820181905260248201527f4f776e61626c653a2063616c6c6572206973206e6f7420746865206f776e65726044820152606401610334565b600080546001600160a01b038381166001600160a01b0319831681178455604051919092169283917f8be0079c531659141344cd1fd0a4f28419497f9722a3daafe3b4186f6b6457e09190a35050565b60405163b2dc5dc360e01b81526001600160a01b0384169063b2dc5dc390610a2e90339086908690600401611164565b600060405180830381600087803b158015610a4857600080fd5b505af1158015610a5c573d6000803e3d6000fd5b50505050505050565b6000806000610a748585610c0f565b90925090506000816004811115610a8d57610a8d611192565b148015610aab5750856001600160a01b0316826001600160a01b0316145b15610abb576001925050506108d4565b600080876001600160a01b0316631626ba7e60e01b8888604051602401610ae39291906111d8565b60408051601f198184030181529181526020820180516001600160e01b03166001600160e01b0319909416939093179092529051610b219190611212565b600060405180830381855afa9150503d8060008114610b5c576040519150601f19603f3d011682016040523d82523d6000602084013e610b61565b606091505b5091509150818015610b74575080516020145b8015610b9b57508051630b135d3f60e11b90610b99908301602090810190840161122e565b145b98975050505050505050565b6040516375ceb34160e01b81526001600160a01b038416906375ceb34190610bd790879086908690600401611164565b600060405180830381600087803b158015610bf157600080fd5b505af1158015610c05573d6000803e3d6000fd5b5050505050505050565b6000808251604103610c455760208301516040840151606085015160001a610c3987828585610c54565b94509450505050610c4d565b506000905060025b9250929050565b6000807f7fffffffffffffffffffffffffffffff5d576e7357a4501ddfe92f46681b20a0831115610c8b5750600090506003610d38565b8460ff16601b14158015610ca357508460ff16601c14155b15610cb45750600090506004610d38565b6040805160008082526020820180845289905260ff881692820192909252606081018690526080810185905260019060a0016020604051602081039080840390855afa158015610d08573d6000803e3d6000fd5b5050604051601f1901519150506001600160a01b038116610d3157600060019250925050610d38565b9150600090505b94509492505050565b80356001600160a01b0381168114610d5857600080fd5b919050565b600080600060608486031215610d7257600080fd5b610d7b84610d41565b95602085013595506040909401359392505050565b600060208284031215610da257600080fd5b6108d482610d41565b60008060408385031215610dbe57600080fd5b610dc783610d41565b946020939093013593505050565b60008083601f840112610de757600080fd5b50813567ffffffffffffffff811115610dff57600080fd5b602083019150836020828501011115610c4d57600080fd5b60008083601f840112610e2957600080fd5b50813567ffffffffffffffff811115610e4157600080fd5b6020830191508360208260051b8501011115610c4d57600080fd5b600080600080600080600060a0888a031215610e7757600080fd5b87359650610e8760208901610d41565b9550604088013567ffffffffffffffff80821115610ea457600080fd5b610eb08b838c01610dd5565b9097509550859150610ec460608b01610d41565b945060808a0135915080821115610eda57600080fd5b50610ee78a828b01610e17565b989b979a50959850939692959293505050565b60008060008060008060008060008060006101008c8e031215610f1c57600080fd5b610f258c610d41565b9a5060208c01359950610f3a60408d01610d41565b985067ffffffffffffffff8060608e01351115610f5657600080fd5b610f668e60608f01358f01610dd5565b9099509750610f7760808e01610d41565b96508060a08e01351115610f8a57600080fd5b610f9a8e60a08f01358f01610e17565b909650945060c08d0135935060e08d0135811015610fb757600080fd5b50610fc88d60e08e01358e01610dd5565b81935080925050509295989b509295989b9093969950565b600060208284031215610ff257600080fd5b5035919050565b8183823760009101908152919050565b60008261102657634e487b7160e01b600052601260045260246000fd5b500690565b81835260006001600160fb1b0383111561104457600080fd5b8260051b8083602087013760009401602001938452509192915050565b60808152856080820152858760a0830137600060a087830181018290526001600160a01b0387166020840152601f8801601f1916830183810382016040850152906110af908201868861102b565b915050826060830152979650505050505050565b60006bffffffffffffffffffffffff19808e60601b1683528c6014840152808c60601b1660348401528a6048840152808a60601b1660688401528789607c850137878301818860601b16607c82015260018060fb1b0386111561112557600080fd5b8560051b915081876090830137016090810193909352505060b0019a9950505050505050505050565b634e487b7160e01b600052603260045260246000fd5b6001600160a01b0384168152604060208201819052600090611189908301848661102b565b95945050505050565b634e487b7160e01b600052602160045260246000fd5b60005b838110156111c35781810151838201526020016111ab565b838111156111d2576000848401525b50505050565b82815260406020820152600082518060408401526111fd8160608501602087016111a8565b601f01601f1916919091016060019392505050565b600082516112248184602087016111a8565b9190910192915050565b60006020828403121561124057600080fd5b505191905056fea26469706673582212200f3bab9169c214299ad1f7043ecca7f7a65de331bef987f89ebd173f5793f11264736f6c634300080f0033",
  "linkReferences": {},
  "deployedLinkReferences": {}
}